:020000040800F2
:100000000000022025DF00087103000875030008C6
:10001000790300087D030008810300080000000048
:100020000000000000000000000000008503000840
:1000300089030008000000008D03000891030008F8
:1000400075DF000875DF000875DF000875DF000840
:1000500075DF000875DF000875DF000875DF000830
:1000600075DF000875DF000875DF000875DF000820
:1000700075DF000875DF000875DF000875DF000810
:1000800075DF000875DF000875DF000875DF000800
:1000900075DF000875DF000875DF000875DF0008F0
:1000A00075DF000875DF000875DF000875DF0008E0
:1000B00075DF000875DF000875DF000875DF0008D0
:1000C00075DF000875DF000875DF000875DF0008C0
:1000D00075DF000875DF000875DF000875DF0008B0
:1000E00075DF000875DF000875DF000875DF0008A0
:1000F00075DF000875DF000875DF0008050D0008D2
:1001000075DF000875DF000875DF000875DF00087F
:1001100075DF000875DF000875DF000875DF00086F
:1001200075DF000875DF000875DF000875DF00085F
:1001300075DF000875DF000875DF000875DF00084F
:1001400075DF000875DF000875DF000875DF00083F
:1001500075DF000875DF000875DF000875DF00082F
:1001600075DF000875DF000875DF000875DF00081F
:1001700075DF000875DF000875DF000875DF00080F
:0801800075DF000875DF0008BF
:10018800F0B54FF4406083B0C4F20200002941D0BA
:100198004FF4005101F028FD4FF44060C4F2020012
:1001A8004FF4804101F022FD2B4D2C4C2C4ED4F8FD
:1001B8001C1DD4F8180D03F093F8D4F81C1D3060FA
:1001C800091AB1F57A7F0246C4F81C1D30DDD4F84F
:1001D800203D002B2FD1D4F8187D224E22493068BB
:1001E8000023BF1800930A1D2B46C4F8187D03F09E
:1001F800D3F818B1023005D003B0F0BD30681B4900
:1002080003F084F8194B1969284603B0BDE8F0409B
:1002180000F068BD4FF4804101F0E6FC4FF4406007
:10022800C4F202004FF4005101F0E0FC104DBCE7AD
:10023800002000F07BFB0F4A42F2D82310461946F3
:100248000027C4F8182DC4F81C3DC4F8207D03F01D
:1002580047F802463060BEE76C82002054B50020A3
:1002680084200120742001206CC200208C200120F1
:100278006CA2002018000020F0B54FF4406687B04B
:10028800C4F202060820012101F0F6F90024012534
:100298004FF4704330466946032700938DF8057084
:1002A8008DF804508DF806408DF8074001F00EFCDB
:1002B80029464FF4003001F009FA2846294601F092
:1002C800DBF902236946304660228DF804308DF848
:1002D800057000928DF806408DF807504FF4884756
:1002E80001F0F4FB30460521072201F08DFCC4F231
:1002F800000730460621072201F086FC38464FF4F5
:10030800E1320C2302A9ADF80C40ADF80E40ADF86F
:100318001040ADF814400292ADF8123002F024FEFD
:100328003846294602F0AAFE07B0F0BD82B0054A59
:100338000190019BC2F8243DD2F8243D002BFBD14B
:1003480002B0704754B50020044BD3F8242D22B1D5
:10035800D3F8242D013AC3F8242D704754B5002052
:10036800FEE700BF704700BF704700BFFEE700BF51
:10037800FEE700BFFEE700BFFEE700BF704700BF13
:10038800704700BF704700BF2DE9F843524B1C6807
:1003980044B9524D2B780133DBB2022B2B7005D0B8
:1003A800BDE8F883BDE8F843FFF7CEBF4C4E4FF4E5
:1003B8000060C4F20000214622463470B47002F096
:1003C80023FA4FF40060C4F200000421224602F030
:1003D8001BFA4FF40060C4F200000821224602F024
:1003E80013FA4FF40060C4F200000C21224602F018
:1003F8000BFA30462921062200F056FE394A3A4BBC
:1004080012783078B1781B78821ACB1AD2B2DBB264
:100418004FFA82FC59B28CEAEC77A7EBEC7781EAC9
:10042800E170A0EBE1705FFA87F95FFA80F8C845E0
:1004380028BFC14685F8019095F801903270B370D5
:10044800B9F1000F1FD0C31B112BC4BF0123AB7020
:1004580005DC381A1128C6BFFF23AB70AC7014290D
:1004680015DC0F3103DAAB781C4A012B2AD0BCF11A
:100478001D0F16DDAB78194A5BB2013303D113792E
:100488000BB90123137100232B70BDE8F883AB78F7
:10049800124A5BB2012BEAD1D1780029F3D1D3708B
:1004A800F1E71CF11E0FEEDAAB780C4A5BB20133B0
:1004B800E9D11379DBB2012B01BF0C48002103708D
:1004C8001171E0E7D378012BDDD10949002381F8C8
:1004D8000080D370D7E700BF78C200208CC200200C
:1004E8007C2001206C200120882001207EC2002071
:1004F8007FC200204FF46D42CEF200024FF46053E9
:10050800D2F88810C4F2020341F47001C2F88810CE
:100518001968002241F0010119609A60186843F2D5
:10052800100120F08470C2F2004120F4803018607D
:100538005960196882B021F480211960DA6000924C
:1005480001921A6842F480321A601A4603E0009B4E
:10055800B3F5A06F09D0136803F400330193009B2F
:1005680001330093019B002BF1D04FF46053C4F288
:1005780002031B6813F4003318BF01230193019B86
:10058800012B08D04FF46D43CEF200034FF0006208
:100598009A6002B070474FF46053C4F202034FF4FC
:1005A800E042196CC4F2000241F0805119641168EC
:1005B80041F4804111609A689A609A6842F4004256
:1005C8009A60996845F2084241F4A051C0F240721D
:1005D80099605A601A6842F080721A6019460A686F
:1005E8004FF460539201C4F20203F8D54FF47052ED
:1005F800C4F2020240F2056111609A6822F0030217
:100608009A609A6842F002029A609A6802F00C02B4
:10061800082AFAD1B6E700BF4FF46053C4F20203C8
:100628009A6802F00C02042A12D0082A1CBF4FF460
:100638001051C0F2F40110D04FF46052C4F202021B
:10064800174B9268C2F303129A5CD1401961704744
:100658004FF49051C0F27A01EEE758685A6810F4E6
:10066800800F586815BF4FF490534FF41053C0F2E1
:100678007A03C0F2F40302F03F02B3FBF2F14FF445
:100688006053C4F20203C0F388105B68C3F30143EC
:10069800013301FB00F15B00B1FBF3F1CCE700BFD4
:1006A80000000020704700BF0120704742F2AC03F1
:1006B800C2F2010316221A604FF0FF30704700BFE4
:1006C800014B16221A60FEE7AC2001201046704745
:1006D800094A136863B118186946884289BF074BED
:1006E80010600C221A6088BF4FF0FF33184670471D
:1006F800034B1360EFE700BF94C20020AC20012039
:10070800B02001204FF0FF30704700BF4FF4005376
:100718004B600020704700BF0120704700207047E1
:10072800002070470EB44FF0FF3003B0704700BF91
:1007380042F2AC03C2F201030A221A604FF0FF3002
:10074800704700BF42F2AC03C2F2010302221A60F2
:100758004FF0FF30704700BF4FF0FF30704700BFC9
:100768004FF400534B600020704700BF42F2AC03C7
:10077800C2F201031F221A604FF0FF30704700BF1A
:1007880042F2AC03C2F201030B221A604FF0FF30B1
:10079800704700BF42F2AC03C2F201030C221A6098
:1007A8004FF0FF30704700BF10B52DED028BB5EE4E
:1007B800C00AF1EE10FA86B0B0EE408A44BFB1EE3E
:1007C800408A2D224FF00003B0EE480A0446ADF8E7
:1007D800143044BF8DF815308DF8142007F01EF939
:1007E80007EE904AF0EE408AF8EEE70AB2EE040A05
:1007F80007F058F978EE688AF6EE007AE8EE807A23
:10080800BCEEC88AFCEEE77A00940194CDED027A3A
:100818000549064805AA18EE103A08F089FD03486C
:1008280006B0BDEC028B10BDA01501089CC20020CB
:1008380010B44FF4A844C4F20004228B4FF4A84328
:100848009207C4F20003F8D41A8892B242F4807274
:100858001A809C8A4FF4A842E407C4F20002F8D533
:1008680094231382948A4FF4A84314F0020FC4F21D
:100878000003F7D01A8B1882988A4FF4A842000612
:10088800C4F20002F8D51182918A4FF4A8434907AF
:10089800C4F20003F8D51A8892B242F400721A80A2
:1008A80010BC704746F2B802C4F2020242F6504148
:1008B800104BC0F2010110B5116019681C69516034
:1008C80043F60C41C4F20001916058680421D060DD
:1008D80051611068002140F001001060596099686A
:1008E8000122514099601A7314B199685869A04758
:1008F80010BD00BF00C3002008B502209E21FFF7ED
:1009080097FF4FF47053C4F200034FF460629A8368
:1009180008BD00BF08B502200121FFF789FF4FF489
:100928007053C4F2000300229A8308BD193010B531
:10093800C4B221462020FFF77BFF21462120BDE8D5
:100948001040FFF775BF00BF2DE9F04FDFF878E2E0
:100958000746012087B0002488460146CEF80440A7
:10096800CEF81040CEF80040CEF81440CEF808403B
:1009780016468EF80C401D4600F07EFE022001212E
:1009880000F07AFE0420012100F076FE0820012103
:1009980000F072FE4FF40010012100F06DFE4FF4DC
:1009A800406B4FF4001001214FF0100A00F08EFE4A
:1009B800C4F2020B4FF40040012100F087FE4FF013
:1009C8000209012358460DEB0A018DF814300193F2
:1009D8008DF816408DF81740CDF810A08DF81590B9
:1009E80001F074F8019B8DF815904FF480604FF476
:1009F80010720DEB0A01C4F202008DF81630049251
:100A08008DF814908DF8174001F060F84FF480606D
:100A1800C4F202000621042201F0F6F84FF48060C7
:100A28000422C4F20200092101F0EEF84FF400603C
:100A38004FF4A4530DEB0A01C4F2020004938DF89D
:100A480015908DF814908DF816408DF8174001F028
:100A58003DF84FF40060C4F202000721062201F0BD
:100A6800D3F84FF40060C4F202000A21062201F014
:100A7800CBF84FF400600622C4F202000C2101F00A
:100A8800C3F820460DEB0A01C4F20200CDF810A00D
:100A98008DF815908DF814908DF816408DF8174044
:100AA80001F014F820460622C4F20200042101F0E5
:100AB800ABF8ABF81AA00394039A44F6FE739A4273
:100AC80006DC00BF039C01340394039C9C42F8DDC0
:100AD8004FF44063C4F2020310221A834FF400104B
:100AE800012100F039FE4FF40010002100F034FE1F
:100AF8004FF4A843C4F2000340F201424FF0D20E73
:100B08002A2048F233012B24988019810220A3F867
:100B18001CE001211C841A80FFF78AFE0420AF2103
:100B2800FFF786FE05208121FFF782FE04210620BB
:100B3800FFF77EFEFF20FFF7F9FE02209E21FFF758
:100B480077FE0A200021FFF773FE0E200421FFF72D
:100B58006FFE27200021FFF76BFE1F200F21FFF7F4
:100B680067FE1A200A21FFF763FE1B200A21FFF700
:100B78005FFE4FF47053C4F200034FF46050C4F2A8
:100B8800020000229A838368BF0123F4000347EA26
:100B980008778360C0F88470036843F0806303605B
:100BA80001680901FCD546F400764FF47053C4F28D
:100BB800000346EA0525ADB24FF460621D849A83AE
:100BC80007B0BDE8F08F00BF00C300204FF470519C
:100BD800C4F200010A894FF470539207C4F200036B
:100BE800F8D580B2988170474FF47053C4F200036F
:100BF80080B29881704700BF46F2B802C4F2020280
:100C0800F8B5136823F00103064613600846136815
:100C180013F00103FBD14FF461450D4ACEF20005F4
:100C28004FF470544021C4F200044FF4004713738A
:100C38006F6085F82F13A18889B241F00201A18065
:100C48009360166150610EB19168B047F8BD00BF5E
:100C580000C3002046F2B803C4F2020330B4196896
:100C680021F001011A461960136813F00103FBD142
:100C78000B484FF47051C4F2000103738A884FF493
:100C8800614422F002021204CEF20004120C4FF466
:100C980000458A80C4F88450036130BC704700BFA7
:100CA80000C300200E4B5A6810B50AB1002010BDD1
:100CB8004FF46142CEF200024FF40044C2F884407F
:100CC800586019601B7B43B14FF46143CEF20003B7
:100CD8004FF400425A60012010BDFFF7E3FDF3E72F
:100CE80000C3002038B505460C4600E030BF284652
:100CF8002146FFF7D7FF0028F8D038BD4FF4C0438E
:100D0800C4F20203054AD96841F00061D96053680A
:100D18000BB1FFF7C7BD1373704700BF00C30020B6
:100D280030B54DF67874C0F60004054683B054F823
:100D38002000012104EB450400F09EFC47F68413D3
:100D4800228AC2F20003009253F8250000240123EE
:100D5800022269468DF804308DF807308DF8064078
:100D68008DF8052000F0B2FE03B030BD4DF6787363
:100D7800C0F6000347F6841203EB4003C2F20002F8
:100D8800198A52F820301983704700BF4DF67873DE
:100D9800C0F6000347F6841203EB4003C2F20002D8
:100DA800198A52F820305983704700BF47F68413D8
:100DB800C2F200034DF67872C0F6000253F82030F4
:100DC80002EB40025969128A4A405A61704700BFD3
:100DD80030B50446012087B00D46014600F04CFCB2
:100DE8004FF48040012100F07FFC06AB1849012236
:100DF80001EB840443F8102D2069194600248DF86E
:100E08000C408DF80F4000F061FE012D01D007B0B5
:100E180030BD2046214601F0F9F810230DEB030000
:100E28008DF8153004958DF814408DF8165000F0A3
:100E380045FD0F23062201A88DF807508DF80420E0
:100E48008DF805308DF8063000F046FADFE700BF70
:100E58008479002008B547F68413C2F2000303EB37
:100E680080000121006900F0ABFE08BD38B51B4CBD
:100E78004FF480530546236003E023685A1E22601E
:100E880043B34FF44050C4F20100022101F082F84C
:100E98000028F2D04FF440502946C4F2010001F076
:100EA8003FF84FF48053236003E023685A1E226002
:100EB80083B14FF44050C4F20100012101F06AF8F7
:100EC8000028F2D04FF44050C4F2010001F024F899
:100ED800C0B238BDFFF744FAC0B238BD98790020D7
:100EE80070B5012A04464FF480500E461546C4F2E8
:100EF80002004FF0080118D900F078FE46F04000D3
:100F0800FFF7B4FF013DADB20135651914F8010BC7
:100F1800FFF7ACFFAC42F9D14FF48050C4F20200A5
:100F28000821BDE8704000F05FBE00F05FFE30466B
:100F3800FFF79CFF002DE5D1EEE700BF2DE9F04F4C
:100F480089B00024804601214FF480508DF8034079
:100F580000F0CAFB0120014600F08EFB10200121A1
:100F680000F08AFB1020012100F086FB26461020A5
:100F7800012100F081FBC4F20206052130460A4631
:100F880008AD00F041FE30460621052200F03CFE87
:100F98004FF0200A05223046072100F035FE45F8BB
:100FA8001CAD0227304629468DF80A408DF8087096
:100FB8008DF80B708DF809704FF4405900F086FDDC
:100FC800304629468023C4F20109019300F07EFDD2
:100FD800294640233046019300F078FD484600F04A
:100FE80029FE4FF0080B4FF4007E07224FF482735E
:100FF800484603A94FF48056ADF81C20ADF80E30D2
:10100800ADF816E0C4F20206ADF80C40ADF8104099
:10101800ADF81240ADF81440ADF81A40ADF818B06C
:1010280000F040FE4846012100F0F0FE4FF00109B3
:10103800294630468DF80A40CDF804B08DF809707D
:101048008DF8089000F042FD3046594600F0CCFD7E
:10105800304629468DF808408DF80A408DF80B4037
:10106800CDF804908DF8097000F030FD304629461F
:10107800019700F02BFD98F8004098F8013098F897
:10108800030098F8041098F80220234303430B4305
:101098000DEB0A00134300F81D3D51464A46FFF781
:1010A8001FFF09B0BDE8F08F70B5012A04464FF460
:1010B80080500E461546C4F202004FF0080119D9B7
:1010C80000F094FD46F0C000FFF7D0FE013DADB240
:1010D800013565190020FFF7C9FE04F8010BAC4281
:1010E800F8D14FF48050C4F202000821BDE87040E6
:1010F80000F07ABD00F07AFD46F08000FFF7B6FEFA
:10110800002DE3D1EDE700BF00B583B00DF1070076
:1011180021210122FFF7C8FF9DF807300DF10700D4
:1011280043F04003212101228DF80730FFF7D8FE54
:1011380003B000BD10B582B0044620210DF10700B0
:101148000122FFF7B1FF9DF8073023F020031C436D
:101158000DF10700202101228DF80740FFF7C0FE9E
:1011680002B010BD10B582B0044620210DF1070071
:101178000122FFF799FF9DF8073003F07F031C4316
:101188000DF10700202101228DF80740FFF7A8FE86
:1011980002B010BD10B582B0044620210DF1070041
:1011A8000122FFF781FF9DF8073023F040031C431D
:1011B8000DF10700202101228DF80740FFF790FE6E
:1011C80002B010BD30B583B002AC002304F8013D75
:1011D8000546382120460122FFF766FF69782B78FB
:1011E800AA780B4313432046382101228DF8073093
:1011F800FFF776FE03B030BD30B583B002AC0023F4
:1012080004F8013D0546212120460122FFF74CFF45
:1012180068782B78A9789DF8072003430B4322F0C0
:101228002F0213432046212101228DF80730FFF7B2
:1012380057FE03B030BD00BF10B584B02021012295
:1012480004460DF10700FFF72FFF062202A8292107
:10125800FFF72AFF9DF8073003F0200303F0FF0291
:1012680093B99DF908109DF90A209DF90C3001EBFE
:10127800C10102EBC20203EBC303490052005B0049
:1012880084E80E0004B010BD002AFBD09DF90810B8
:101298009DF90A209DF90C3001EBC10102EBC20255
:1012A80003EBC303C900D200DB0084E80E00E9E7C2
:1012B8001C160108000000206C8200206C820020AF
:1012C800B02001204FF46D4340F0BF60CEF2000320
:1012D80040F40030D8607047C37870B47BB90278A6
:1012E8004FF461435109203102F01F020120CEF270
:1012F800000300FA02F243F8212070BC70474FF453
:101308006D43CEF200034678DA6884780378D243D6
:10131800C2F30222C2F10401C9B20F2506FA01F193
:1013280045FA02F2C9B222400A4303F1604303F5C9
:1013380061431201D2B283F8002302784FF461436B
:1013480002F01F0101205209CEF2000300FA01F158
:1013580043F82210D1E700BF21F060414FF46D43FC
:1013680021F07F01CEF2000308439860704700BF68
:101378004FF46D43CEF200031A6919B922EA00004E
:101388001861704710431861704700BF4EF2100390
:10139800CEF2000304281A680CBF42F0040222F0BF
:1013A80004021A60704700BF4FF46053C4F202038E
:1013B8000022196841F0010119609A60186843F227
:1013C800100120F08470C2F2004120F480301860CF
:1013D8005960196821F480211960DA60704700BFEC
:1013E80043F60203C4F2020300221A701870704711
:1013F80082B000234FF460520193C4F202021368D2
:101408009B030CD5019B01330193019B4FF460535F
:10141800C4F202031868C0F3404002B07047019B51
:1014280001330193019BB3F5A06FE8D1EEE700BF4C
:101438004FF46053C4F202031A6822F0F80242EA39
:10144800C0001860704700BF0023C4F2472318602B
:10145800704700BF43F67003C4F20203002201285C
:101468001A701A7004D0042801D105221A70704726
:10147800187070474FF46863C4F2472318607047C8
:1014880030B40143029D41EA82125B084FF4605474
:10149800013B42EA0561C4F2020441EA034161608A
:1014A80030BC70476023C4F247231860704700BF00
:1014B8004FF460538001C4F2020340EA0171C3F89B
:1014C800841070476823C4F247231860704700BF30
:1014D8004C23C4F247231860704700BF4FF4605391
:1014E800C4F202039A6822F0EC6210430143996047
:1014F800704700BF4FF46053C4F202039A6822F0A9
:101508007842104301439960704700BF4FF460531D
:10151800C4F202039A6822F00302104398607047ED
:101528004FF46053C4F20203986800F00C0070474F
:101538004FF46053C4F202039A6822F0F002104399
:10154800986070474FF46053C4F202039A6822F41B
:10155800E0521043986070474FF46053C4F202039E
:101568009A6822F4604242EAC0009860704700BF5F
:101578004FF46053C4F2020310B49A6802F00C02EC
:10158800042A20D0082A24D04FF41052C0F2F402C2
:1015980002604FF46053C4F202031F499C68C4F30D
:1015A80003140C5DE24042609C68C4F382240C5D25
:1015B80022FA04F484609B68C3F34233CB5CDA40BC
:1015C800C26010BC704747F64002C0F27D1202604C
:1015D800DFE75C68596814F4800F5C6815BF47F64C
:1015E80040034FF41053C0F27D13C0F2F40301F02E
:1015F8003F01B3FBF1F24FF46053C4F20203C4F3AA
:1016080088145B68C3F30143013302FB04F25B00F7
:10161800B2FBF3F20260BCE79C79002000F440734F
:10162800B3F5407F0CD14FF46053C4F2020320F0AD
:1016380070419A6821F4407122F4F8120A439A60C2
:101648004FF46053C4F20203C0F30B001A6F104347
:101658001867704740F63C63C4F247231860704728
:101668004FF46463C4F24723186070474FF4AE73B5
:10167800C4F24723186070474FF46053C4F2020362
:101688001A6B19B922EA00001863704710431863EF
:10169800704700BF4FF46053C4F202035A6B19B984
:1016A80022EA00005863704710435863704700BF30
:1016B8004FF46053C4F202039A6B19B922EA00008E
:1016C8009863704710439863704700BF4FF46053A6
:1016D800C4F202031A6C19B922EA000018647047B0
:1016E80010431864704700BF4FF46053C4F20203FC
:1016F8005A6C19B922EA00005864704710435864BC
:10170800704700BF4FF46053C4F202031A6919B955
:1017180022EA00001861704710431861704700BF43
:101728004FF46053C4F202035A6919B922EA00005F
:101738005861704710435861704700BF4FF46053B9
:10174800C4F202039A6919B922EA00009861704745
:1017580010439861704700BF4FF46053C4F202030E
:101768001A6A19B922EA0000186270471043186211
:10177800704700BF4FF46053C4F202035A6A19B9A4
:1017880022EA00005862704710435862704700BF51
:101798004FF46053C4F202031A6D19B922EA00002B
:1017A8001865704710431865704700BF4FF46053C1
:1017B800C4F202035A6D19B922EA0000586570474D
:1017C80010435865704700BF4FF46053C4F20203DA
:1017D8009A6D19B922EA0000986570471043986518
:1017E800704700BF4FF46053C4F202031A6E19B970
:1017F80022EA00001866704710431866704700BF59
:101808004FF46053C4F202035A6E19B922EA000079
:101818005866704710435866704700BF43F60D037B
:10182800C4F202031A7819B922EA00001870704746
:1018380010431870704700BF4309012B0ED0022BCC
:101848004FF46053C4F202030CBF1B6F5B6F00F0D0
:101858001F0023FA00F000F0010070474FF46053B6
:10186800C4F202031B68F2E74FF46053C4F20203A8
:101878005A6F42F080725A67704700BF4FF4605346
:10188800C4F20203DB6818420CBF00200120704735
:1018980043F60E03C4F20203187070474FF47053F6
:1018A800C4F201034FF6FF710022C0F27F011A60F3
:1018B8005A609A60DA605961704700BF837970B4E2
:1018C8003BB34FF47053C4F2010301681E680279F8
:1018D8004579CC4326401E605E6802F1804202F5DD
:1018E8009E3234405C601468214311600268986835
:1018F800D14308409860D868102D01EA0001D960EA
:1019080013D005F1804505F59E352B681A432A60EA
:1019180009E00379016803F1804303F59E331A68EF
:1019280022EA01021A6070BC7047996811439960F5
:10193800D9680A43DA60F6E700230C224271036093
:1019480003718371704700BF4FF47053C4F20103F1
:101958001A691043186170474FF47053C4F20103B9
:101968005B6918420CBF0020012070474FF4705388
:10197800C4F20103586170474FF47053C4F2010375
:101988001A685B69034004D010420CBF0020012094
:1019980070471846704700BF4FF47053C4F20103F4
:1019A8005861704708B50023C4F2020398423CD03E
:1019B8004FF48063C4F20203984240D04FF40063AE
:1019C800C4F20203984244D04FF44063C4F20203C5
:1019D800984248D04FF48053C4F2020398424CD046
:1019E8004FF4A053C4F20203984250D04FF4C053AE
:1019F800C4F20203984254D04FF4E053C4F20203F5
:101A0800984258D04FF40053C4F20203984200D0D1
:101A180008BD4FF480700121FFF774FE4FF4807009
:101A28000021BDE80840FFF76DBE01200146FFF721
:101A380069FE01200021BDE80840FFF763BE0220CF
:101A48000121FFF75FFE02200021BDE80840FFF7F3
:101A580059BE04200121FFF755FE04200021BDE8EE
:101A68000840FFF74FBE08200121FFF74BFE082072
:101A78000021BDE80840FFF745BE10200121FFF70F
:101A880041FE10200021BDE80840FFF73BBE2020A2
:101A98000121FFF737FE20200021BDE80840FFF7AD
:101AA80031BE40200121FFF72DFE40200021BDE876
:101AB8000840FFF727BE80200121FFF723FE802082
:101AC8000021BDE80840FFF71DBE00BF00222DE938
:101AD800F00713460E6801274FF0030804E00133AE
:101AE800102B02F102022CD007FA03F404EA0605CF
:101AF800A542F4D1D0F8009091F804C008FA02F495
:101B0800E44304EA0909C0F80090D0F800900CFA00
:101B180002FA0CF1FF3C4AEA0909BCF1010FC0F8CE
:101B2800009011D9C56891F807C02C40C460C568F9
:101B38000CFA02F401332C43102BC46002F10202A8
:101B4800D2D1BDE8F0077047D0F808A091F8059009
:101B580091F806C004EA0A0AC0F808A0D0F808A05C
:101B680009FA02F949EA0A09C0F80890D0F804907D
:101B780029EA0505456045680CFA03FC1FFA8CFC48
:101B88004CEA05054560CDE700234FF6FF72026079
:101B9800037143718371C371704700BF82B04FF402
:101BA80080330193019B0B430193019BC361C16186
:101BB800019BC361C3690193C369019302B0704774
:101BC800036919420CBF002001207047006980B2E8
:101BD800704700BF436919420CBF002001207047BD
:101BE800406980B2704700BF0183704741837047E6
:101BF8000AB9418370470183704700BF416170474C
:101C08004369594041617047CB08083301F0070127
:101C180030B4890050F823500F248C4025EA04047E
:101C280040F8234050F823408A40144340F82340AA
:101C380030BC704708B54FF44053C4F201039842D2
:101C480018D04FF46053C4F2000398421ED04FF4EA
:101C58007053C4F20003984200D008BD4FF400400E
:101C68000121FFF779FD4FF400400021BDE808404D
:101C7800FFF772BD4FF480500121FFF77BFD4FF451
:101C880080500021BDE80840FFF774BD4FF4804044
:101C98000121FFF761FD4FF480400021BDE80840B5
:101CA800FFF75ABD2DE9F007B1F802A0B1F800908E
:101CB800B1F80480B1F806C00F894E898D89CC89A6
:101CC8000A8A03884AEA090141EA080141EA0C0143
:101CD800394331432943214303F441530B439BB216
:101CE8000380838B23F400631B041B0C8383028211
:101CF800BDE8F007704700BF838B8A6823F47B63D5
:101D080023F00F031B042DE9F0031B0C022483832B
:101D18000484868BA242B6B25ED04FF46053C4F2FC
:101D280002038C889D68002C0CBF4FF0010C4FF00B
:101D3800020C2D0242BF9D6825F400059D604FF4FA
:101D48006053C4F2020347F64005D3F88480D3F801
:101D58008470D3F80490CB8809F03F09C0F27D1550
:101D6800C8F38818B5FBF9F5B3F5007FC7F3027718
:101D780008FB05F5B5FBF7F516BF4FEA4C1C2D0A15
:101D8800B5FBFCF505EB85056D00B5FBF2F20532F8
:101D98004CF6CD45CCF6CC4592B2A5FB0272D208E2
:101DA8005508AF1E02F00102FD2F94BF45EA02223A
:101DB8000222B1F800C04F888D8946EA0C0141F42F
:101DC800006139432943134389B29BB20C4303840E
:101DD8008483BDE8F00370478C88CB88E9E700BFAF
:101DE800002307220282038043808380C38003810B
:101DF80043818381C381704700230222826003806C
:101E080043808380C3808381704700BF038829B9DA
:101E180023F040031B041B0C038070479BB243F064
:101E280040030380704700BF838B29B923F4806384
:101E38001B041B0C838370479BB243F4806383832A
:101E4800704700BF038823F400631B041B0C038046
:101E580003889BB219430180704700BF0388B1F51E
:101E6800804F15BF23F480439BB21B0443F4804387
:101E780018BF1B0C038070474FF6FF639942038815
:101E88000BBF23F480739BB21B0443F4807308BF19
:101E98001B0C0380704700BF838829B923F0040313
:101EA8001B041B0C838070479BB243F004038380A0
:101EB800704700BF838829B923F010031B041B0C4B
:101EC800838070479BB243F010038380704700BF44
:101ED800838B23F47B6323F00F031B0402221B0C68
:101EE80083830284828B0B8830B44D888C888989DF
:101EF80092B22A4342F4006223F4007322431B0483
:101F08000A431B0C92B2002B0CBF4FF480730023C2
:101F18001343838330BC7047808980B2704700BF09
:101F280081817047038829B923F400531B041B0CD3
:101F3800038070479BB243F400530380704700BF8F
:101F480003889BB243F4805303807047012914BF70
:101F5800008B808A80B27047008A80B2704700BFC9
:101F680083889BB21AB923EA01018180704719431B
:101F7800818070470123090903FA01F1838889B236
:101F88009BB21AB923EA0101818070471943818005
:101F9800704700BF038919420CBF00200120704719
:101FA800C94389B20181704710B48488008901F05F
:101FB8000F03012280B202FA03F31840A4B205D03D
:101FC80009098A4014420CBF0020012010BC704748
:101FD80001F00F01012303FA01F1C94389B201811C
:101FE800704700BF08B54FF480400121FFF7C2FBDE
:101FF8004FF480400021BDE80840FFF7BBBB00BF9D
:102008004FF46053C4F20103186070478A084FF414
:1020180060530232C4F2010301F0030130B48900B5
:1020280053F822500F248C4025EA040443F8224038
:1020380053F822408840044343F8224030BC70479C
:10204800DC23C4F227231860704700BF4FF4806375
:10205800C4F22723186070474FF46053C4F2010399
:10206800186AC0F30020704708B50023C4F20103C2
:1020780098425BD0B0F1804F62D04FF48063C4F2D5
:102088000003984266D04FF40063C4F200039842FC
:102098006AD04FF44063C4F2000398426ED04FF404
:1020A8008053C4F20003984272D04FF4A053C4F294
:1020B8000003984276D04FF48063C4F2010398423B
:1020C8007AD04FF48043C4F2010398427ED04FF493
:1020D8008843C4F20103984200F084804FF490438F
:1020E800C4F20103984200F089804FF4C053C4F24F
:1020F8000003984200F08E804FF4E053C4F20003CE
:10210800984200F091804FF40053C4F200039842C3
:1021180000D008BD4FF480700121FFF71DFB4FF47C
:1021280080700021BDE80840FFF716BB012001467A
:10213800FFF720FB01200021BDE80840FFF71ABB8C
:1021480001200146FFF708FB01200021BDE80840F7
:10215800FFF702BB02200121FFF7FEFA022000214F
:10216800BDE80840FFF7F8BA04200121FFF7F4FAA8
:1021780004200021BDE80840FFF7EEBA082001213D
:10218800FFF7EAFA08200021BDE80840FFF7E4BAA3
:1021980010200121FFF7E0FA10200021BDE80840D7
:1021A800FFF7DABA20200121FFF7D6FA2020002114
:1021B800BDE80840FFF7D0BA02200121FFF7DAFA9C
:1021C80002200021BDE80840FFF7D4BA4FF4803060
:1021D8000121FFF7CFFA4FF480300021BDE8084015
:1021E800FFF7C8BA4FF400300121FFF7C3FA4FF4E4
:1021F80000300021BDE80840FFF7BCBA4FF480204A
:102208000121FFF7B7FA4FF480200021BDE808400C
:10221800FFF7B0BA40200121FFF79EFA40200021C5
:10222800BDE80840FFF798BA80200121FFF794FA2B
:1022380080200021BDE80840FFF78EBA70B4002264
:102248004FF48064C4F201020388C4F2010490428E
:1022580018BFA0429BB214BF0022012208D04FF43D
:102268008064C4F20004B0F1804F18BFA04223D1AB
:102278004FF68F754C881D4045EA04034FF4A0566D
:102288004FF48055C4F20005C4F20006B04218BFEE
:10229800A8421FBF0D894FF6FF441C4044EA0503BE
:1022A8004D680C880380C56204850AB18B7A038661
:1022B8000123838270BC70474FF440654FF400647B
:1022C800C4F20005C4F20004A04218BFA842D5D148
:1022D800CEE700BF00234FF0FF3242600380038146
:1022E80043808372704700BF01858282704700BFB8
:1022F800038823F070031B041B0C194301807047EB
:1023080041627047C1627047406A7047008D80B271
:10231800704700BF038829B923F002031B041B0C74
:10232800038070479BB243F002030380704700BFED
:10233800038829B923F004031B041B0C038070478E
:102348009BB243F004030380704700BF038829B998
:1023580023F080031B041B0C038070479BB243F0DF
:1023680080030380704700BF038823F008031B0421
:102378001B0C038003889BB219430180704700BF80
:10238800038823F440731B041B0C038003889BB24F
:1023980019430180704700BF038829B923F001035E
:1023A8001B041B0C038070479BB243F0010303809E
:1023B800704700BF2DE9F001048C8D89B1F802C087
:1023C8000F8824F001042404240C0484028C8488DB
:1023D800038B4CEA050C22F0020223F073034FF43E
:1023E8008066002512041B04C4F20106C4F201052C
:1023F800120C1FFA8CFC1B0CA84218BFB0424CEA06
:102408000202A4B243EA070317D14FF6F775B1F8F1
:102418000EC0B1F812800E8A8F88154045EA0C0C60
:102428004FF6FB7248EA06064FF6FF450CEA020231
:10243800B6B225403A4346EA050489688480038396
:1024480041630284BDE8F001704700BF2DE9F00345
:10245800048C8D89B1F802C00F8824F0100424047C
:10246800240C0484028C8488038B22F0200212043A
:1024780023F4E643120C42EA05121B044FF480666B
:1024880000251B0CC4F20106C4F2010542EA0C1235
:1024980043EA0723A84218BFB04292B2A4B29BB243
:1024A80019D14FF67F76B1F80E90B1F81080B1F8D7
:1024B80004C04F8A16404FF2FF3546EA09164FF618
:1024C800BF722540324045EA880442EA0C1244EAC9
:1024D800870492B2A4B289688480038381630284EA
:1024E800BDE8F003704700BF2DE9F003048C8D8927
:1024F800B1F802C00F8824F480742404240C0484E6
:10250800028C8488838B22F400721204120C42EA33
:10251800052223F073034FF4806600251B04C4F2E0
:102528000106C4F2010542EA0C221B0CA84218BF9E
:10253800B04292B2A4B243EA070319D14FF2FF7630
:10254800B1F80E90B1F81080B1F804C04F8A164067
:102558004CF6FF7546EA09264FF6FF322540324011
:1025680045EA081442EA0C2244EA071492B2A4B2DB
:10257800896884808383C1630284BDE8F00370475F
:10258800F0B4048C8D89B1F802C00F8824F480540B
:102598002404240C0484028C8488838B22F4005243
:1025A8001204120C42EA05324FF480660025C4F288
:1025B8000105C4F20106A84218BFB04223F4E6435D
:1025C80008BF0E8A8968A4B208BF4BF6FF754FEAA8
:1025D800034308BF25404FEA134308BF45EA861462
:1025E80042EA0C3243EA072392B29BB208BFA4B274
:1025F8008480838301640284F0BC704700230380D5
:102608004380838083608381C381038243827047D0
:1026180030B4058C0124ADB28C404FF6F77325EA2F
:1026280004040B400484183073B10439C1F34E011B
:1026380048F6FF730C5823400B5012020B5892B205
:102648001A430A5030BC704749084FF68F730C582C
:1026580023400B500B581A430A50F3E74163704765
:1026680081637047C163704701647047038B23F02F
:1026780070031B041B0C194301837047038B23F45D
:10268800E0431B041B0C43EA01218BB20383704710
:10269800838B23F070031B041B0C19438183704741
:1026A800838B23F4E0431B041B0C43EA01218BB208
:1026B80083837047038B23F008031B041B0C194307
:1026C80001837047038B23F400631B041B0C43EA4C
:1026D80001218BB203837047838B23F008031B040B
:1026E8001B0C194381837047838B23F400631B04FD
:1026F8001B0C43EA01218BB283837047038B23F0C1
:1027080004031B041B0C194301837047038B23F438
:1027180080631B041B0C43EA01218BB203837047BF
:10272800838B23F004031B041B0C1943818370471C
:10273800838B23F480631B041B0C43EA01218BB2B7
:1027480083837047038B23F080031B041B0C1943FE
:1027580001837047038BC3F30E0343EA01218BB255
:1027680003837047838B23F080031B041B0C1943DE
:1027780081837047838BC3F30E0343EA01218BB235
:1027880083837047038C23F002031B041B0C19433B
:1027980001847047038C23F008031B041B0C1943A6
:1027A80001847047038C23F020031B041B0C43EAAD
:1027B80001118BB203847047038C23F080031B0440
:1027C8001B0C43EA01118BB203847047038C23F47A
:1027D80000731B041B0C43EA01218BB2038470476E
:1027E800038C23F400631B041B0C43EA01218BB206
:1027F80003847047038C23F400531B041B0C43EA27
:1028080001318BB203847047038C10B401248C40CF
:102818009BB223EA04030384038C8A4013439BB2CC
:10282800038410BC704700BF038C10B404248C4090
:102838009BB223EA04030384038C8A4013439BB2AC
:10284800038410BC704700BF0B88F0B4002B32D053
:10285800042B58D0082B4E88038C00F082808F8878
:102868000D89CC8823F480510904090C0184828BDA
:10287800038C22F4407223F4005312055B04120DFA
:102888005B0C42EA072243EA063342EA05329BB26E
:1028980043F4805392B282830384838B23F440638E
:1028A8001B041B0C8383838B9BB243EA04239BB2D8
:1028B8008383F0BC7047038C4E888D880F89CC8841
:1028C80023F001010904090C0184028B038C22F016
:1028D800F3021204120C23F00A0342EA07121B0443
:1028E80046F0010192B21B0C0B432A430283038476
:1028F800038B23F00C031B041B0C0383038B9BB279
:1029080023430383D5E7038C4E888D880F89CC88B1
:1029180023F010010904090C0184028B038C22F4B2
:102928004072120523F0A003120D1B0442EA07327D
:102938001B0C92B243EA061342EA05229BB243F00B
:10294800100392B202830384038B23F440631B04B5
:102958001B0C0383038B9BB243EA04239BB20383C0
:10296800A7E78D880F89CC8823F480710904090CA6
:102978000184828B038C22F0F30223F42063120477
:102988001B04120C1B0C42EA071243EA062392B2FC
:102998009BB243F480732A4382830384838B23F09E
:1029A8000C031B041B0C8383838B9BB223438383FD
:1029B8007FE700BF00230122828003804380C38019
:1029C800038170472DE9F0014A888B880C88002A1A
:1029D8000CBF02260026012B14BF01270227002C5A
:1029E80054D0058CB1F80880B1F806C025F0100560
:1029F8002D042D0C0584048B018C24F440742405CB
:102A080021F0A001240D0904090C44EA083441EA24
:102A18000212A4B244EA032392B29BB242F010021B
:102A280003830284018B21F440610904090C0183AA
:102A3800038B9BB243EA0C239BB20383018C21F0E6
:102A480001010904090C0184028B038C22F0F302B2
:102A5800120423F00A03120C1B0442EA08121B0C8E
:102A680043F0010392B21E43174307830684038B86
:102A780023F00C031B041B0C0383038B9BB243EA58
:102A88000C0CA0F818C0BDE8F0017047048CB1F830
:102A980008C0CD8824F001010904090C0184018BC8
:102AA800048C21F0F3010904090C24F00A0441EA1A
:102AB8000C11240442F0010289B2240C0B43144384
:102AC80003830484038B23F00C031B041B0C038374
:102AD800038B9BB22B430383038C23F010031B044B
:102AE8001B0C0384028B038C22F44072120523F022
:102AF800A003120D1B0442EA0C321B0C43F0100316
:102B080092B243EA061642EA072707830684038B34
:102B180023F440631B041B0C0383038B9BB243EA1F
:102B28000525ADB20583AEE7406B7047806B7047F3
:102B3800C06B7047006C7047038B23F00C031B04B9
:102B48001B0C0383038B9BB219430183704700BF9F
:102B5800038B23F440631B041B0C0383038B9BB27E
:102B680043EA01218BB20383704700BF838B23F0B4
:102B78000C031B041B0C8383838B9BB21943818337
:102B8800704700BF838B23F440631B041B0C8383B3
:102B9800838B9BB243EA01218BB28383704700BFCA
:102BA800B1F802C00B888A89F0B48F88CE880D8965
:102BB8004C894CEA03033B4333432B4323431343DE
:102BC8009BB2A0F84430F0BC704700BF00230380DC
:102BD80043808380C380038143818381704700BF22
:102BE800B0F8443021B9C3F30E03A0F8443070475D
:102BF8006FEA43436FEA53439BB2A0F844307047EF
:102C0800838829B923F004031B041B0C83807047B5
:102C18009BB243F004038380704700BF838829B9BF
:102C280023F001031B041B0C838070479BB243F005
:102C380001038380704700BF83899BB21AB923EAD6
:102C480001018181704719438181704781827047F2
:102C5800038A19420CBF002001207047C94389B27A
:102C680001827047038A828911420CBF002001202B
:102C780019420CBF002000F001007047C94389B217
:102C8800018270470A43A0F84820704783899BB2A5
:102C98001AB923EA0101818170471943818170477C
:102CA800838829B923F008031B041B0C8380704711
:102CB8009BB243F008038380704700BF038923F069
:102CC80007031B041B0C0381704700BF038923F013
:102CD80070031B041B0C1943018103899BB243F049
:102CE80007030381704700BF602970B427D0068CA2
:102CF80026F001063604360C0684058B048C25F074
:102D0800F3052D0424F00A042D0C240445F00105D4
:102D1800240C45EA031344F001049BB222430383C5
:102D28000284038923F070031B041B0C0B430381EB
:102D380003899BB243F00703038170BC7047048C7E
:102D480024F010042404240C0484058B048C25F43A
:102D5800407524F0A0042D0524042D0D240C45F401
:102D6800807544F0100445EA033344EA02129BB22A
:102D780092B203830284D4E710B40489E4B22143F5
:102D88000A4342EA03239CB20481038923F07703B0
:102D98001B041B0C43F07703038110BC704700BF72
:102DA80010B40489E4B221430A4342EA03239CB2E3
:102DB800048103899BB243F48043038110BC7047AC
:102DC800038923F070031B041B0C1943018170470E
:102DD800838823F070031B041B0C838083889BB2B9
:102DE80019438180704700BF038923F007031B0440
:102DF8001B0C038103899BB219430181704700BFF3
:102E0800038923F080031B041B0C038103899BB2F5
:102E180019430181704700BF10B40489E4B221430B
:102E28000A4342EA03239CB2048110BC704700BFE6
:102E380070B40589048B068C24F4407426F02206AD
:102E480024F003043604360C25F007052404324325
:102E58002D04240C2D0C44F4807442EA03132943F6
:102E680044F001049EB201810483068470BC70475B
:102E7800838829B923F080031B041B0C83807047C7
:102E88009BB243F080038380704700BFA0F85010C6
:102E9800704700BF08B54FF48053C4F2010398424D
:102EA80028D04FF48843C4F2000398422CD04FF442
:102EB8009043C4F20003984232D04FF49843C4F2CE
:102EC8000003984238D04FF4A043C4F2000398425C
:102ED8003ED04FF4A053C4F20103984200D008BD7D
:102EE80020200121FEF746FC20200021BDE80840F3
:102EF800FEF740BC10200121FEF73CFC1020002109
:102F0800BDE80840FEF736BC4FF400300121FEF75B
:102F180023FC4FF400300021BDE80840FEF71CBC3C
:102F28004FF480200121FEF717FC4FF48020002188
:102F3800BDE80840FEF710BC4FF400200121FEF761
:102F48000BFC4FF400200021BDE80840FEF704BC4C
:102F58004FF480100121FEF7FFFB4FF48010002191
:102F6800BDE80840FEF7F8BB028ACB8822F440523D
:102F78001204F0B5120C04461A4348890F898E884A
:102F88000D4689892282A38923F4B05323F00C03C8
:102F980047EA060202431B0492B21B0C1343A381A7
:102FA800A38A23F440731B041B0C85B00B43A38234
:102FB8006846FEF7DDFA4FF4A0524FF48053C4F28E
:102FC8000103C4F201029C4218BF9442A2890CBFBB
:102FD800039B029BA08912B2002A2A6803EB830391
:102FE800B4BF5200920003EB8303B3FBF2F148F243
:102FF8001F53C5F2EB13A3FB01525209642500B21B
:10300800002802FB1511B5BFC90009013231323160
:10301800B4BFA3FB0103A3FB01534FEA0212B4BFE1
:10302800C3F34213C3F343131A4392B2228105B088
:10303800F0BD00BF00234FF416510C2201604281FD
:103048008380C38003818381704700BF0A88038A15
:1030580030B44D888C88C9882A43224323F470638E
:103068000A431B0492B21B0C1343038230BC704703
:103078000023038043808380C3807047838929B9F4
:1030880023F400531B041B0C838170479BB243F449
:1030980000538381704700BF038B03F47F4303838E
:1030A800038B9BB219430183704700BF838919B909
:1030B800C3F30E03838170476FEA43436FEA5343B8
:1030C8009BB28381704700BF838A29B923F40063C8
:1030D8001B041B0C838270479BB243F400638382FA
:1030E800704700BFC1F30801818070478088C0F332
:1030F80008007047038A23F00F031B041B0C03828C
:10310800038A9BB219430182704700BF838929B99A
:1031180023F002031B041B0C838170479BB243F00E
:1031280002038381704700BF838923F400631B0473
:103138001B0C838183899BB219438181704700BF2F
:10314800038A23F020031B041B0C0382038A9BB20F
:1031580019430182704700BF038A29B923F48043C9
:103168001B041B0C038270479BB243F48043038209
:10317800704700BF83899BB243F001038381704786
:10318800838A29B923F008031B041B0C8382704728
:103198009BB243F008038382704700BF038BDBB206
:1031A8000383038B9BB243EA01210183704700BF6D
:1031B800838A29B923F020031B041B0C83827047E0
:1031C8009BB243F020038382704700BF838A29B9EA
:1031D80023F010031B041B0C838270479BB243F03F
:1031E80010038382704700BF838A23F004031B0403
:1031F8001B0C8382838A9BB219438182704700BF6C
:10320800838A29B923F002031B041B0C83827047AD
:103218009BB243F002038382704700BF838A9BB24C
:103228001AB923EA010181827047194381827047E4
:1032380001F01F0310B4C1F342110124A14204FAA2
:1032480003F308BF0C3003D002290CBF1030143030
:10325800046822B924EA0303036010BC70472343BF
:103268000360FAE7038819420CBF00200120704769
:10327800C94389B201807047C1F3421330B401F0E9
:103288001F020124012B04FA02F416D0022B0CBFF2
:10329800028A828A92B2224003880125090A9BB2D7
:1032A80005FA01F119420CBF00200120002A0CBFC9
:1032B800002000F0010030BC7047828992B22240A1
:1032C800EAE700BF090A012303FA01F1C94389B2F9
:1032D8000180704700F066BD08B100F0C9BD7047B5
:1032E800013900290FDD431E002002E00130884229
:1032F80009D013F8012FFF2AF8D15A7802F0E0021A
:10330800E02AF3D170474FF0FF30704770B418B11E
:10331800D0F8D037032B09D000230B604B608B60AB
:10332800CB600B614B618B6170BC704790F8D42700
:10333800D0F8B8570A4ED0F8BC47D0F8C0070D608F
:1033480002EB420506EB45068A61B6F904604C605B
:10335800102506FB04F20A6188604B61CD60E3E743
:1033680068E3000838B50D46044688B1114600F0F8
:10337800FBFA013009D0D4F8D037032B05D1204609
:103388002946FFF7C3FF002038BD6FF0050038BDA0
:103398006FF0040038BD00BF2DE9F04F89B08A46B0
:1033A800914604938046002800F03682096800F0B0
:1033B800DBFAB0F1000BC0F20E81DAF800105944C4
:1033C800CAF80010404600F0B9FB00280390C0F28C
:1033D8004C810399D9F80030DAF800200BEB010092
:1033E8005218191ACAF80020C9F80010D8F8B837C6
:1033F8000592002B4BD1D8F8B037002B4AD10123C6
:10340800C8F8B037D9F80010059A4E1E002EC0EB48
:103418000200154620DD2C46002304E00133B342A8
:1034280004F1010418D0EA5CFF2A2746F6D1627835
:1034380002F0E00CBCF1E00FF0D10578FF2D00F0B0
:10344800CF804FF6FD72CFF6FF72D21A89184E1E42
:10345800002E04F10305DEDC4FF0FF33C8F8B43763
:10346800D8F8C437D8F8C827D8F8BC1702FB03F334
:1034780001FB03F1002907DD049B002203EB410156
:1034880023F8022B8B42FBD16FF00200A5E0D8F89D
:10349800B0374BB1D8F8B477404600F059FAC019A4
:1034A800C8F8CC07D9F80010129E002E00F0C28090
:1034B800D8F8D837C8F8CC17002B78D1002976DD92
:1034C800C8F8DC17D9F80030DAF800605B1A711810
:1034D800CAF80010C9F80030D8F8DC27D8F8C43783
:1034E800002083424FEAC2090790C4BF0390CA462E
:1034F80073DDD8F8BC37002B40F3F980039CDDF866
:103508001C9008EBC40B0BF2DC7B002417E0039E35
:103518000194009600F0C0FF002804F10104A7EB15
:10352800C00705EB0006C0F24581DDF81C90D8F80D
:10353800BC37C9EB0707A342BA4440F3D8800399C4
:1035480053468DE8120007AA3146404602F0FEFBBA
:10355800079F5BF8043F0546C9EBC501C919C1EBD4
:103568000A0A4FEAD579591A8A45B8BF49F00109BC
:1035780075190B4607AA40462946B9F1000FC6D06F
:10358800D8F8C437D8F8C827D8F8BC1702FB03F313
:1035980001FB03F1002907DD049B002203EB410135
:1035A80023F8022B8B42FBD16FF0070015E0D8F807
:1035B800C437D8F8C827D8F8BC1702FB03F301FBB7
:1035C80003F1002907DD049B002203EB410123F8E6
:1035D800022B8B42FBD16FF0050009B0BDE8F08FDC
:1035E8004578AA427FF42DAF8278A578554015F02A
:1035F800FC0F7FF426AF9307059B48BF04F1FF3704
:10360800FF1A002FC8F8B477FFF62AAF039CD8F842
:10361800C017D8F8C437D8F8C8270BEB070000192B
:1036280001FB00F1C90002FB03F391FBF3F3C8F8B7
:10363800B83731E7D8F8CC3799422DDAD8F8C437FB
:10364800D8F8C827D8F8BC1702FB03F301FB03F12D
:10365800002907DD049B129A03EB410123F8022B92
:103668008B42FBD14FF0FF30B7E7D8F8C437D8F812
:10367800C827D8F8BC1702FB03F301FB03F10029A4
:1036880007DD049B002203EB410123F8022B8B4248
:10369800FBD16FF00600A0E7D8F8DC17D8F8D827D8
:1036A800914257DB891A414408F11C061C31304607
:1036B80005F046FDD8F8D837DAF80010D8F8CC2746
:1036C80008EB03001C3005F0EFFCD8F8CC37D8F82D
:1036D800D827DAF80010D218C8F8DC27D9F8002063
:1036E800C918D31ACAF80010C9F80030F4E64046E1
:1036F800039900F0BFFB0028C0F29180D8F8BC37CE
:10370800002BC4BF0024039D04DC6CE0D8F8BC3750
:10371800A34268DD22464046294601F0ABFB00285B
:1037280004F10104F2DAD8F8C437D8F8C827D8F871
:10373800BC1702FB03F301FB03F1002907DD049B1F
:10374800002203EB410123F8022B8B42FBD16FF0DF
:103758000A0042E708EB01001A46DAF800101C30AC
:1037680005F0A2FCD8F8CC37D8F8DC27DAF8001036
:10377800D218C8F8DC27D9F80020C918D31ACAF813
:103788000010C9F80030D8F8C437D8F8C827D8F8D6
:10379800BC1702FB03F301FB03F1002907DD049BBF
:1037A800129A03EB410123F8022B8B42FBD16FF0F5
:1037B800010012E7D8F8C437D8F8C817D8F8BC27DA
:1037C80001FB03F302FB03F2002AC8BF049BCB46AC
:1037D800C8BF03EB420203DD23F802BB9342FBD1CF
:1037E8006FF00800F9E6039CD8F8C82702FB04F23A
:1037F800049C02FB03F104EB4101404603F0D6F8B8
:103808000028D8F8C43721DB039C0134A342039471
:103818003FF76FAE0020E0E66FF00400DDE6D8F871
:10382800C437D8F8C817D8F8BC2701FB03F302FB44
:1038380003F2002A07DD049B002103EB420223F870
:10384800021B9342FBD16FF00900C6E6D8F8C817EF
:10385800D8F8BC2701FB03F302FB03F2002A07DDBB
:10386800049B002103EB420223F8021B9342FBD185
:103878006FF00B00B1E600BF00230260C160436037
:1038880083607047F0B44268846801F01F01034602
:1038980002FA01F5C1F11F00611AC24000295D60FA
:1038A8004FEA5200996001DBF0BC7047DF68032FD4
:1038B800C1F100011EDC00245C60002F3AD01A68B8
:1038C800BE1812F8015B2C432402B24283E81400AC
:1038D800F7D1C7F10302D2009440C1F1200224FAC3
:1038E80002F28C400025C1EBC707DD6010439F60E2
:1038F8005C60D9E71A681446961C14F8015B2D061B
:1039080083E8300054781E6045EA04445C6095788A
:10391800D61C44EA05241E605C60D5783E1F25430A
:103928000432C1F120071A60DE6005FA01F425FAB5
:1039380007F2DBE73C463A46D4E700BF10B4046818
:103948008368611AC3EBC100801A10BC704700BFBE
:1039580030B1036823B15869003018BF012070479F
:103968004FF0FF30704700BF2DE9F00F84B00028FA
:1039780000F0D4800368002B00F0D0800A78FF2A7A
:1039880040F0CC804A7802F0E004E02C40F0C68099
:10399800D20894071ABF02F0010282F00102022243
:1039A8001A7091F80180C8F34108C8F104045C60FA
:1039B80091F801C000940CF0010C8CF0010CC3F8D4
:1039C80008C08D782D09DD608C78C4F381041C61F2
:1039D8008E78C6F340065E6101968E7806F0010681
:1039E8009E61CE78B6091E7791F80390C9F3011944
:1039F800C3F8209091F80390C9F3C009C3F8249044
:103A080091F80390C9F38009C3F8289091F80390BE
:103A1800032C09F00309C3F82C907FD0009F042FD2
:103A28007CD00F2D7AD04FF0DE0A0AFB02FA4FF055
:103A38004A0BDFF8F8900BFB04AAD144012EC3F817
:103A4800349005D04FF00009032EC3F8209062D0BF
:103A5800022703975700C8F1030B029707EB0208E8
:103A6800039FDFF8CC90C0F8BC7708EB0B0A009FE7
:103A780039F91A90C0F8D077DFF8B8A080F8D427C1
:103A880008EB0407002A14BF012202225AF8277003
:103A9800C0F8C42799FBF2F2C0F8C827C0F8C0776D
:103AA80045B3C8EB0818C4EB0414CBEB0B1204EBBA
:103AB80008079044029ADFF880901A4C032E18BF2A
:103AC80001327F1916464544174A39F9177032F9F9
:103AD800152034F91640C2EB42153C1B02EB850257
:103AE800043C019DA4EB4C042C19D200C0F8CC472F
:103AF800C0F8B827BCF1000F06D1C3F830C00420C5
:103B080004B0BDE8F00F704708794A7942EA00220C
:103B18001A630620F4E7012703979BE74FF0FF306D
:103B2800EEE700BF54E300087CE30008A8DF0008C4
:103B380068E300088CE4000844E200082DE9F04F2F
:103B4800824687B0002800F02581D0F80090B9F1AE
:103B5800000F00F02381D0F80480B8F1000F00F0C6
:103B6800198199F8007099F81C30029102AD002F64
:103B780040F0F480032B14BF202311230921284689
:103B88000193059303970497FFF77CFE99F81C109F
:103B9800C8F80000032914BF032105212846FFF7B0
:103BA80071FEDAF8BC37C8F80400002BC8BF08F16A
:103BB800140611DD08EB0714043428460121FFF729
:103BC80061FE44F8040FB442F7D1DAF8BC37013784
:103BD800BB4206F11006EDDCDAF8C427002A40F3F0
:103BE800AE8000230093DAF8BC37002B40F3A180A5
:103BF800009B03EBC30B4FEA0B1B002644E002219A
:103C08002846FFF73FFE012160612846FFF73AFE8C
:103C18000521A0612846FFF735FE0521E061284609
:103C2800FFF730FE00216162206203212846FFF77A
:103C380029FE0321A0622846FFF724FE0321E06243
:103C48002846FFF71FFE63692063002B69D1626B6A
:103C5800636048F80730E360C2F11403A36399F87E
:103C680000300020002B57D0E06301212846FFF7E1
:103C780009FE012120642846FFF704FEDAF8BC3764
:103C880060640136B34252DD0C2106EBC6072846B4
:103C9800FFF7F8FD0BEBC7072837092148F807009D
:103CA8002846FFF7EFFD08EB070408216060284667
:103CB800FFF7E8FD99F80010A060002914BF09215A
:103CC80004212846FFF7DEFD0121E0602846FFF7C2
:103CD800D9FD2061002892D16061A06105212846A4
:103CE800FFF7D0FD0521E0612846FFF7CBFD052150
:103CF80020622846FFF7C6FD042160622846FFF7C8
:103D0800C1FD032160632846FFF7BCFD99F8003028
:103D1800A0630020002BA7D128460121FFF7B2FDA0
:103D2800A2E7022B13D0072363630D2396E7DAF883
:103D3800C427009901318A4200913FF756AFD8F85D
:103D48000030CAF8D837019807B0BDE8F08FA369EA
:103D5800002BE8D1082262630C237FE7032B14BFF2
:103D6800112309230193019A00230821284605926B
:103D780003930493FFF786FD99F81C10C8F8000018
:103D8800032914BF022101212846FFF77BFDC8F84B
:103D9800040021E74FF0FF320192D4E74FF0FF33E0
:103DA8000193D0E729492A4B2A4A70B401F68C209E
:103DB8000B6101F5FE6601F6280501F5176403F5A8
:103DC80052734B618A610E604D608C60C86001F26D
:103DD800EF73002201F6270103F8012F8B42FBD174
:103DE8001D4B002103F5A47203F8011F9342FBD178
:103DF8001A4B002103F58E7203F8011F9342FBD181
:103E0800174B03F590521032002103F8011F93421B
:103E1800FBD1144B002103F5527203F8011F9342A2
:103E2800FBD1114B002103F5D95203F8011F93422E
:103E3800FBD10E4B03F508520432002103F8011F91
:103E48009342FBD1014870BC704700BF18C30020E3
:103E5800B4DF00201CFE00203FCB002087CC0020D0
:103E6800A3CD0020B3DF0020FBE200201BFE0020D2
:103E7800704700BF2DE9F04F05468BB089460028F2
:103E880000F00D810768002F00F00981D0F804A028
:103E9800BAF1000F00F0038180680690002800F056
:103EA800FE80EE68002E00F0FA80D5F81080B8F198
:103EB800000F00F0F480D5F8BC370024A342099421
:103EC800089433DDC1EB411301EBC10B9B004FEAB2
:103ED8000B1B0793079A04EBC400C4EB44110BEBCC
:103EE800C00E04EB440302EB4101069A0EF1280EC2
:103EF80008EBC3035118D64403F5467304F59062E2
:103F080001910293CDF800E03B4606EB002006EB5A
:103F18008202414600F098F906EB840303F59053BA
:103F280001349860D5F8BC37A342D3DC386A00283E
:103F38004DD006F59054A368002B73DDE368002B81
:103F480070DD430811D0C20744D5D8F83033002BB0
:103F580040F09B80D8F844237B6B0132304633F91C
:103F6800121008AA02F0E2F9386AC3071CD53B7898
:103F78002168002B39D109EBC90208F546734010B6
:103F88000AEB021A00930190069DDAF88820C9EB23
:103F9800491C05EB8C0308AD304602923E3303956D
:103FA8003A4602F0F5F9386A88B194E80C000898A6
:103FB8000999B0FA80F09A42A8BF13460138B1FABD
:103FC80081F10139A060E1602360636000200BB0DB
:103FD800BDE8F08F94E80A009942B8BF1946304608
:103FE80008AA02F0A3F9386ABFE7069D09EBC903DE
:103FF80008F5467240100AEB031A05F1F80302901F
:1040080001930092DAF88820C9EB491C05EB8C0370
:1040180008AD304603923E3304953A4602F03EFB23
:10402800386AC1E72368002B14DD012106EB830BF6
:10403800CCF2000133466FF0404553F8042B8A4216
:10404800B8BF43F8041C03DBAA42C8BF43F8045CAA
:104058005B45F2D16268002A7FF773AF06F51063FB
:10406800012103EB820BCCF200016FF0404553F8BD
:10407800042B8A42B8BF43F8041C03DBAA42C8BF1A
:1040880043F8045C5B45F2D15BE77B6BD8F84023CF
:1040980003EB4203B3F9301001EB41019FE74FF006
:1040A800FF3094E72DE9F00F4EF2B04503F003041A
:1040B800C0F6000505EB840605F1280C9B1086B0B8
:1040C8000CEB841C1F2BA8BF1F23D6F82861DCF833
:1040D800084000961B2BD8BFDF1C0546DCF804609F
:1040E800DCF80C00D4BF27EAE7771F2747F6991BAF
:1040F8003E413C41C5F6822B40FA07F70020039663
:10410800049405970290CDF804B00DE006AE06EBD6
:10411800870757F8106C002C40EA0600B8BF7642B3
:10412800013A41F8046B2FD055F8044B24F00047AE
:10413800032FEBDD0F2F07DC5CF82760002BBABFDD
:104148005F42BE401E41E6E73F2F21DC4EF2B048F9
:10415800C0F6000808EB8707DDF80080D7F8F8609C
:1041680086FB0878DE1E002EA8BF48FA06F6D2DACB
:1041780076426FF0004949FA06F7B845D4BF08FA05
:1041880006F66FF00046C6E706B0BDE8F00F7047C8
:104198007E046FF078494E45D8BF7E056FF0604ABF
:1041A800D4BF4FF004094FF000095645D8BFB600F8
:1041B8006FF04047D8BF09F10209DDF804A0BE42FC
:1041C800D8BF76004BF6A95842F26317D8BF09F159
:1041D8000109C2F6A0185645C1F28507D8BF47465F
:1041E800DFF860A04EF2B048C0F60008C8BFD0465D
:1041F800B24687FB0ABAD8F804705744B24687FB20
:104208000ABAD8F808705744B24687FB0ABAD8F8F1
:104218000C70574487FB06A64EF2B047C0F600075D
:1042280007EB8909D8F81080D9F8F871464486FB5D
:104238000787FF00DDF8008087FB0868D9F8186257
:104248009E1B90E7C4E400082DE9F04F8FB0189D3D
:1042580005906C690491022C099207931CBF4FF0DA
:104268000D0B4FF0160900F0FD80189C079D226C7D
:104278002B6AA6685B0802F1010203964FF0000161
:104288004FEA420218BF023E02920B9118BF0396F2
:10429800B9F1000F00F0F980039CCDF804904FF0BD
:1042A8000008CDF818B045464746C4F1D00ADDF8F5
:1042B80024B0DDF81C9002E0019CA54229D0189E8C
:1042C800D9F83430F26B199E33F91510DFF8C4E1D0
:1042D8006C1C301933F9146010F8013C761A0EEB97
:1042E80004000AB110F8012C05999B18029A01EBF9
:1042F800870002FB03A301463246FFF7D3FEBF192E
:1043080048EA000800B10B95DBF800309F422546CB
:10431800D2DBDDF818B00B9A1A9D0023BBF10B0F06
:104328006A612B60EB60AB606B602B6100F3968079
:10433800039E199C049D01970BEB4B03C6F1D00615
:10434800E318043DCDF82CB0CDF830B0CDF834B03A
:104358000396009306955F46079E0199736BDDF8F7
:10436800609003EB470207F1010EB2F92E30B2F963
:1043780030A0059ACDF820E0C3EB0A0A0026434690
:104388004FEA8A04B846354602EB810B1F46DDF832
:1043980000E0D9F8282003990EEB0503DDF808E0C2
:1043A800DB7D01EBC2020EFB0323049A0BEB060034
:1043B80091195246FFF776FE09F1040936190743A9
:1043C80010B10BAB43F825800135032DDFD1019DDA
:1043D8000AEB4A03ED18BAF1000FB846019512DD51
:1043E800069B4FEACA0AE21853F8041FCBF80010DC
:1043F8001959CBF8041053F80A109342CBF8081057
:104408000BF10C0BF0D1099E019C33689C4207DA32
:10441800009C089F03340D2F00949DD1019F00E05C
:104428002746099D189E2F600BA90EC9B8FA88F077
:10443800B5691A9E002D14BF022501258A42ACBF1A
:1044480014460C46356001387160B2609C42ACBFBE
:1044580034613361F3600FB0BDE8F08FB8FA88F0CB
:104468000138F8E7AB699B469946002B3FF4FDAE4F
:10447800079E96F800904FF0030BB9F1000F14BF98
:104488004FF006094FF00809EFE64A46C8464F467E
:1044980042E700BFE8E600082DE9F00F98B0029364
:1044A80010910592209B002800F0B5820168002930
:1044B80000F0B1824468002C00F0AD828268002AC6
:1044C80000F0A982C0680790002800F0A482219813
:1044D800219D029EC00003EBC3031B01421903EB9D
:1044E800C2032833E318002E0C900493C0F2938281
:1044F8001B69002B40F09282049E496B726BB36B70
:104508000132D318013331F9124031F913100498EC
:10451800219A4368079D059802F590625B00B3F500
:10452800107FA8BF4FF4107318AE45F822300D92D3
:10453800002246F8102D06939C42A8BF1C4603682B
:104548000698219D0A960C9E8142D4BF169116901A
:10455800079900927219109D1594002701EB022209
:104568001790B8460B920195049E00980B99321843
:10457800C7EB040BBBF1000F01EB8709D26940F3CD
:104588004082029C002CC0F246824EF26075C0F652
:10459800000505EBC2014EF66006C0F60006097973
:1045A800019856F8224055F8322003915B4213F0E7
:1045B800070318BF10F8011B08921CBFC3F12002A3
:1045C80001FA02F2039908BF1A4641BB0BF1FF3109
:1045D800490809F108024B4602EBC102C3F8008002
:1045E800C3F8048008339342F8D100220598029C4E
:1045F8000368019DD118009B04330093009E01F0CD
:104608000703A41A05EBE1050C2E0294019503603B
:1046180000F014810A98821937585468A4E74EF6B6
:10462800E005C0F6000505EB44050E95039D029EC6
:10463800012DC3EB060100F02882039DAC1E012C5E
:1046480000F2E981089C089EDDF838C0CDF8249076
:104658004FF0000AC4F12004013613945446119611
:10466800DA46A34617E007784578C3F11806C3F180
:10467800100407FA06F605FA04F426431039023046
:10468800324310330A2BC8BFBAF1000F2FDCBAF13E
:10469800000F40F3F2810F29E5DCCC18002C40F321
:1046A800BA81002912DD08290678C8BF4178C3F10C
:1046B800180506FA05F5C8BFC3F1100342EA05025A
:1046C800C9BF01FA03F301301A430230631E4FF0E9
:1046D800004545FA03F31A4004F10B030A2BC8BF3F
:1046E800BAF1000F4FF00B0B4FF00001CFDDBCF813
:1046F800005005F00F05C5F1200422FA04F4013436
:104708003CF81440260B04D15B1BAA400CEB440C6C
:10471800B8E79B1BB240039EC4F30317C4F30329F5
:10472800F41E66426641039C0F960F2F08BF032CA8
:1047380033D1DDF844C05C18B9F1000F18BF0CF193
:10474800010CA44500F3678163451FDADD4305EBDF
:104758000C07129500EBD707451EC3F1180415F88E
:10476800016FA640BD4242EA0602A4F10804F6D150
:10477800129E06EB0C04E40808390833651CB1EBFB
:10478800C40103EBC403284400F16E81139D089E05
:1047980022FA05F79B1B0F37B24027B102F00044FD
:1047A800013B274352000F9CB9F10F0F14BF00249F
:1047B80004F0010464B3119D5C18A54200F32B8139
:1047C8009D421DDD089EC3EB06094FEAD90900EB9F
:1047D800090C451EC3F1180415F8016FA64065457C
:1047E80042EA0602A4F10804F6D10839083309F1AF
:1047F8000104B1EBC90103EBC903204400F12B818B
:10480800139D089E22FA05F49B1B04F10F09B24080
:10481800B9F1000F05D002F00044013B49EA040950
:1048280052005B45C0F2F780099CDDF838C084E887
:1048380080020834AAF1020A099423E70B9A069920
:10484800049C0D9D079E02EB8100616C029C56F84A
:104858002550019A0095002C0392D8BF00247BDDD7
:10486800A14AA24C52F82150A14A069E52F82110A2
:104878005B4213F0070205EB040A18BF019DC1F162
:10488800200918BF15F8014B02991CBF0195C2F108
:104898002003C6F50F784FF0000C14BF04FA03F399
:1048A800134608F101086446C2EB010B444553DA8C
:1048B800BBF10F0F7BDD019D2F786D78C2F11806D3
:1048C800C2F1100107FA06F605FA01F13143019E1B
:1048D80010320236092AABF1100B019643EA0103A4
:1048E8000BDCE3E70434444580E8C0008560C16020
:1048F80000F1100030DA092AD8DD23FA09F11AF894
:1049080001100D09C1F3C006521BAB402EB103F0D4
:104918000046013A46F001065B00C1F380052F46C8
:104928002DB103F00047013A47F001075B00C1F3DE
:1049380040052DB103F00045013A45F001055B0043
:1049480011F001011FBF03F0004102F1FF3241F0F5
:1049580001015B006245C5DA009E0D98079934197C
:10496800B4F5107F41F8204011DA0C9921980A1803
:1049780004EB8213079C04EB830304F6FC0101EBB0
:104988000221043B002243F8042F8B42FBD1059AF5
:10499800029C1368039D109EE31805EBE30003F0E7
:1049A8000703801B136018B0BDE8F00F70470BEBCE
:1049B80002010029D0DDBBF1000F15DD019D2E7825
:1049C800C2F1180506FA05F5019EBBF1080F43EA86
:1049D8000503C5BF7578C2F11002013605FA02F267
:1049E800C4BF0236134301964A1E4FF0004545FAEC
:1049F80002F213404FF00A0C01F10A024FF0000BCB
:104A08007BE700231A46029E9642B8BF43F0010393
:104A1800002B3FF4EBAD4FF0FF30C4E70498436937
:104A2800022B7FF469AD8369002B40F0BA80436B99
:104A3800496B45F256520133C5F2555282FB034287
:104A4800A2EBE37301EB43034FF41071B3F92E406B
:104A580004EB44045BE55B18591E4FF0004444FA2C
:104A680001F10A400021CBE65B18591E4FF00044C3
:104A780044FA01F10A40002188E6CBEB0303029DCA
:104A8800CA18AA1ADA46D30FBDE74EF6E006C0F6F2
:104A980000064FF0000C36F8144004F00F04C4F17F
:104AA800200403940E9C04F1020A0F2922DD0778E2
:104AB8004578C3F11806C3F1100407FA06F605FA9B
:104AC80004F43443BBF1000FA1F1100100F102001E
:104AD80042EA040203F1100334DCCCEB030302982E
:104AE8005A18821AD30F8EE708E7000810E7000863
:104AF80000E70008CC18002C8DDD002912DD0829FC
:104B08000678C8BF4178C3F1180506FA05F5C8BF8D
:104B1800C3F1100342EA0502C9BF01FA03F30130E9
:104B28001A430230631E4FF0004545FA03F3BBF108
:104B3800000F02EA03024FF00B0C04F10B034FF0D5
:104B48000001CADD09F10805039E22FA06F43AF8C5
:104B58001440270BBA40C4F30316DB1B02F00047CE
:104B680016B13E435200013BC4F3032402F0004750
:104B780014B13C435200013B6345A946ABF1020B1B
:104B880005F10805FFF647AF0A2BC8BFBBF1000FB8
:104B980049F8086C49F8044CD6DCBBF1000F84DCFA
:104BA8009BE70B7843B9049D4A6B6B6B01334FF459
:104BB800107132F91340AAE44B6BB3F93640B3F9DC
:104BC8003420B3F90C30A41A03EB44044FF41071E9
:104BD8009DE400BF022A2DE9F007454B1ED002EBE9
:104BE800C20203EB021707F1480C01F144068C37A7
:104BF80000F1240850F8043B5CF8045B57F80449BA
:104C08001A4685FB029241F8042B84FB0323404596
:104C180046F80439EED1BDE8F00770478468D3F848
:104C280038C18CFB04248269D3F8205185FB0262C9
:104C3800A2180A604468D3F83C5185FB0424C26971
:104C4800D3F8246186FB0272A2184A600768D3F879
:104C5800404184FB0727026AD3F8286186FB028259
:104C6800BA188A600768D3F84421B84682FB0868F6
:104C7800076AD3F82C6186FB07974744CF604668DC
:104C8800D3F84881B14688FB0969C769D3F8306110
:104C980086FB07A74F440F618668D3F84C9189FBC0
:104CA80006768769D3F8343183FB07A7F6194E6176
:104CB80043698CFB03638B61036985FB0363CB61E9
:104CC800C36884FB03530B62C36882FB03434B62D4
:104CD800036988FB03238B62426989FB0232002344
:104CE800CA624B640B64CB638B634B630B6392E7C1
:104CF800041101082DE9F00F8446002B36D112F07B
:104D0800010030D0DCF88001DCF88028DCF8807302
:104D1800DCF88064DCF88055DCF88046DCF8801725
:104D2800C0F10008DCF88002CCF88081C0F10009ED
:104D3800DCF88000CCF88092C2F1000A7F4242423F
:104D480076426D42644249421846CCF88073CCF8EA
:104D58008064CCF88055CCF88046CCF88017CCF825
:104D680080A8CCF88020BDE8F00F704712F0010051
:104D7800C3F11F0541D00126AE400439013E0CF5B0
:104D880010670020DCF80040E21744FA05F84245B5
:104D980018BF82EA0604DCF8802052424FEAE27922
:104DA80042FA05FAD14504FA03F418BF86EA090263
:104DB8009A404FEAE478CCF80040CCF8802088EAA2
:104DC800040BD41784EA02094A68C4EB090442FABE
:104DD80005FA4FEAE279D14518BF86EA0902C8EB1D
:104DE8000B080CF5807C44EA08049A40674540EAC1
:104DF800040041F8042FC5D1B5E70127AF400439B5
:104E0800013F0CF51068DCF80020D41742FA05F6CB
:104E1800B44218BF84EA070202FA03F4DCF88020DF
:104E2800CCF800404FEAE27942FA05FAD1454FEA58
:104E3800E47618BF87EA09029A407440CCF88020CB
:104E4800A41BD61786EA02094A68C6EB090642FA85
:104E580005FA4FEAE279D14518BF87EA09020CF54D
:104E6800807C26439A40E04540EA060041F8042F3A
:104E7800C9D178E72DE9F04FCFB024911E920028D0
:104E880000F061870368002B00F05D874468229476
:104E9800002C00F05887C5680B95002D00F053874B
:104EA80040691F90002800F04E87249E249FDDF85B
:104EB80078901978DDF878A05B6BF6004FEAC9099D
:104EC800F219002914BF06210821120109EB0A0072
:104ED80002EBC00233F911302596A21848F639655D
:104EE800C3F6E30585FB03B1DC17D36BCDF89890C7
:104EF800C4EBA10109B2022B209100F005870AF545
:104F0800906C0B98CDF834C050F82C3040F2262223
:104F1800934240F3458540F2362520260E951F27FB
:104F28001C96269D1E9E0B98AB1900EB0320002FA4
:104F3800239040F3FD86934B9969DA690191196AC8
:104F4800029204915A6A996A09920391DA6A196B72
:104F58001E685D689C68069203F10C005A6B059107
:104F680090E8010C996BDB6B08920793239B0A91DD
:104F78000C9648330C9E53F804CCD3F80080614655
:104F880086FB0121424685FB02928A1A520043F8A9
:104F9800042C86FB082885FB0C2C08EB0C0253F824
:104FA80008CCD3F8048052001A60614684FB0121C2
:104FB800424680FB02928A1A520043F8082C84FB6E
:104FC800082880FB0C2C08EB0C0253F80CCCD3F807
:104FD800088052005A6061468AFB012142468BFBD9
:104FE80002928A1A520043F80C2C8AFB08288BFB81
:104FF8000C2C08EB0C0253F810CCD3F80C805200A0
:105008009A606146019A82FB0161029E424686FBD4
:1050180002928A1A520043F8102C019981FB082841
:1050280086FB0C2C08EB0C0253F814CCD3F8108038
:10503800049E5200DA60614686FB0121099E4246C1
:1050480086FB02928A1A520043F8142C049981FBB9
:10505800082886FB0C2C08EB0C0253F818CCD3F864
:105068001480039E52001A61614686FB0121069E48
:10507800424686FB02928A1A520043F8182C03997A
:1050880081FB082886FB0C2C08EB0C0253F81CCC7F
:10509800D3F8188052005A616146059E86FB0121AB
:1050A8004246089E86FB02928A1A520043F81C2C3C
:1050B800059981FB082886FB0C2C08EB0C0253F899
:1050C80020CCD3F81C800A9E52009A61614686FB68
:1050D80001214246079E86FB02928A1A520043F833
:1050E800202C0A9981FB082886FB0C2CC4444FEA23
:1050F8004C02013FDA617FF43CAF259C249D269E3B
:105108001E9F63191B01F219229C03EBC203E318CB
:10511800186C0D9D0B9E0E9F56F82530DDF8789083
:10512800DDF878A0DDF878B01F9C9F42A8BF3B4609
:1051380009F5D8690AF2C26A0BF2C46B46F8253041
:1051480048F639611F9D1F9E54F8294055F82A508A
:1051580056F82B60CDF89C9003F11102C3F6E301D9
:1051680081FB02C1D217C2EBA102CDF8A0A0CDF8F5
:10517800A4B01D92199413951496002800F0B985CF
:1051880002E000BF740F0108DDF89490DDF890A0EC
:10519800DDF878C0DDF898B01F9C0B9E229D09EBC6
:1051A8000A000BEB0C0300010CF2824204EBC31162
:1051B80000EBC30004EB03231C9C56F82220159334
:1051C8002830281801F59051002C169009911B924F
:1051D80040F393850025C2F10707062AD4BF3C4651
:1051E8002C4618950895239D1A944EF6A1364BF631
:1051F8008B6941F67E2A4DF6495B42F6326CC6F65B
:10520800D966C6F20D29C1F23A6AC5F2462BC7F62D
:105218000E6C3C350296CDF81090CDF80CA0CDF868
:1052280018B0CDF814C00D9507912197169E77698F
:10523800B3690B972BB1209C089DAC42C8BF0027CF
:105248000B97DDF82090139F149EDDF854A01B9C4B
:10525800B145B8BF00270AEB890A062C0E97CDF88E
:1052680028A000F3A484DDF83490079C219B002635
:1052780037462AADA9F1480E48468268416842FA85
:1052880003FCC7EB0C071941BE1BCF1B216A6E64D8
:10529800083841FA03F270452F622262A5F104052D
:1052A800A4F10404E9D12A9B2C9D2B9C2E9FDDF8A8
:1052B800C490DDF8BCE0339A3099329EDDF808A03E
:1052C8004FEA6308C7EB050CC1EB080104EB0E03BA
:1052D80004EB090052100C91EF19C6EB0C0C0F925D
:1052E800AE19191A2D9D8AFB0525CEEB0404C9EBCE
:1052F800040EF3468AFB0B2BDDF810903C4689FB25
:105308000424DDF80CA0B6468AFB0E2EF61B89FB9A
:1053180006268AFB0727DDF818A00A468AFB0292B0
:10532800DDF814A08AFB0090DDF818A08AFB03932F
:10533800DDF814A08AFB01917F00C7EB4606309F79
:10534800DDF83090DDF8DCA008EB67084FEA4E0E78
:105358006D000EEB440408EB05074000C5EB08059B
:1053680000EB420207EB0408A0192C19A41A1094A8
:1053780090444900C1EB43034FEA4B0ECDF8A88097
:1053880009EB6C08CCEB090C05EB06092D1ABE19C4
:105398003F1A1098CDF8B8C09A1A08EB0E0C994429
:1053A800CEEB080E3B9C3499CDF8C4E03290C2EBAA
:1053B800050EF61AD219389B3A9FCDF8ACC0CDF835
:1053C800B09035983096CD18CB19CAEB000700EB92
:1053D8000A06C4EB070A00190F9F399C2F92DDF8C3
:1053E800D890CDF8B4E0EA1AC4EB0708DDF808B0A5
:1053F8008BFB09193499389C3A9FDDF808C0C4EB37
:10540800010BC7EB0B0B8CFB0B1BB646049C84FBF8
:105418000E1E0146DDF80CC08CFB0171801B84FB5D
:1054280000708CFB06761746DDF818C08CFB074722
:10543800DDF814C08CFB0343DDF818C08CFB054570
:10544800DDF814C08CFB02427600C6EB40060F9CC8
:105458003998490001EB4E01520004EB600E4FEA07
:105468004900C2EB45025B000EEB0005C0EB0E00E5
:1054780003EB4703871908EB6A0C01EB06094FEAAF
:105488004B0E019705EB010BAE194118C9EB050549
:10549800C9EB000903EB0B000CEB0E0BCEEB0C0E6B
:1054A800DDF804C00E9C3390D71ACAEB0808B61A68
:1054B80002EB0C0A7D19C7EB0902CF1A0B9BCDF83A
:1054C800DC8054EA0308CDF8D0B0CDF8D4A03692E9
:1054D80038953996CDF8E8E03B9740F07D83DDF8C4
:1054E8001C90DFF800E5109809F1040CDDF828900D
:1054F8004546AEF10C0A31AE0DF1A00B494601E06C
:10550800B76A70685AF8043983FB072780103B187C
:105518005CF8042C4CF8043C5EF8083C3F1A5042F6
:105528001C46C01B80FB04345EF8043C07EB840770
:1055380080FB0343C2EB8303D817FA1780EA0304FE
:10554800201A82EA0704A21A043E02435E4541F883
:1055580008700CF1040CC9F880380EF1080E08F137
:105568008008A9F1800945EA0205C9D10A98079976
:10557800089A1A9BFFF7BEFBDDF820C00D9C189E09
:10558800DDF870902843079D0CF1010C4834243550
:105598000643CC45CDF820C00D94079518967FF4A6
:1055A80045AEDDF88CA0DDF824B009EBC9030AEBA1
:1055B800C30A0BEB830BCDF88CA0CDF824B01C9D4F
:1055C8001D9EB54280F247824EF6A13747F21D591B
:1055D80047F69A1A4FF6833B099C0A95C6F6D9678F
:1055E800C7F6A339C5F6822AC2F2201B3CADDDF806
:1055F8008CC00197CDF83890CDF83CA0CDF830B0EC
:1056080006940495DDF82890139F149EDDF854A0A5
:105618001B9CB145B8BF00270AEB890A062C0B97DB
:10562800CDF840A000F3B882069BC4F1070503F14A
:10563800240616952A4660460CF10401179635464D
:1056480051F8044C144141F8044C44681441446036
:105658001C68144143F8044B9D4201F1080100F114
:105668000800EDD1DCF83C50DCF83040DCF82400D0
:10567800DCF81810DCF80C20DCF80030DDF804B099
:10568800641B001B091AC1EB0208401BC8EB030985
:10569800C0EB08084FEA69094FEA68088BFB01313B
:1056A8004A0009EB64010346C4EB090902EB010E49
:1056B800C2EB010A8BFB03235B0008EB65020E9C1F
:1056C8009E1884FB0616C5EB0808B6000F9D85FBDF
:1056D80008180C9FD21A4FEA880887FB0232DCF8B8
:1056E8004030DCF83410DCF82870DCF81C40DCF8BA
:1056F8001050C91AC1EB070BC8EB0900CBEB040427
:105708002E90DCF804002D1B401B0290920009EB40
:1057180008070AEB0200C2EB0A08C6EB0E090EEBFB
:105728000602029E0790C3EB0B0B7010079E2B9787
:10573800CBEB050503922C96CDF8B4802A92CDF8D0
:10574800BC90019F6D1087FB042400EB610A640084
:1057580004EB0A0ECDF814E0019E471AC4EB0A04C4
:1057680086FB0B2B4FEA4B0205EB630ADDF838B0DA
:1057780002EB0A008BFB0010EB1A80000F9D85FBE3
:105788000313DDF830B0C2EB0A0A9E008BFB0A3A1D
:10579800DCF84450DCF83830DCF82C20DCF8201039
:1057A8005B1BD21A891A521BDCF8145007EB060B44
:1057B8004FEA8A0AC1EB050EBE1BDCF80850CDF88B
:1057C800C4B004EB0A07DDF814B03496CAEB040A37
:1057D800059C32972418CEEB0505C0EB0B00C2EBF5
:1057E8000E0E119430940890CDF8CCA03590019C01
:1057F8006D104FEA6E0E84FB010105EB630449004E
:10580800EB1A0819019D641A85FB0212DCF8446042
:105818000E9F52000EEB6605511987FB0161DCF8FB
:1058280044600F9FC6EB0E0E890087FB0E6EDDF8F5
:1058380030B0AA1A4FEA8E0E8BFB02529700E51978
:10584800E41B471812973895129D0B9A369503EB6F
:105858000E06471ACEEB0303049906983A933B9732
:10586800CDF800C037963994FFF7B4F9DDF800C0D9
:105878005B4DCDF868C04FF0000E2AABDDF840B0A4
:10588800DDF81CC0CDF814E04F4641469946049E09
:1058980056F80E0006EB0E038000CBF80000DA681D
:1058A8009200C417D617CBF880216040724002944A
:1058B80088460B92D5F82011079081FB0828996932
:1058C80008EB8101CC17CBF800136140D5F82C21E7
:1058D8000D9182FB07175A6A07EB8207F817CBF876
:1058E80080744740D5F838212197614682FB01C171
:1058F800D5F8202182FB0ACA1A6BDDF80CC08A444D
:105908000AEB8202CBF800264FEAE278D5F8441178
:1059180088EA020A81FB0C2CD5F82C71089A87FBBF
:1059280002120B9FDB6B6244BE1BDDF81CC0029F9A
:10593800C7EB0C01DDF834C00E43219902EB83025A
:10594800C4EB0C042643081AD3173043C8EB0A08E3
:1059580083EA0201059CCBF8802740EA0808CB1AA5
:105968000EF1040E48EA03031C43BEF10C0F05F1C7
:1059780004050BF1800BA9F1040905941FD02AAE88
:1059880006EB0E03D9F82C40D968D3F824A056F8B2
:105998000E30D9F81470D9F808C00393089476E744
:1059A800073385FB0315DB17C3EBA50707EBC70315
:1059B8005B0008337C1C0E931C94FFF7B2BA319A33
:1059C800329B119D069EDDF868C0A91092109B10AD
:1059D80086E80E0006F10C0436AA129B179905E01A
:1059E80004110108300A010852F8043F9B1044F8DA
:1059F800043B8C42F8D110980699169B0A9ACDF868
:105A080000C0FFF777F90A9FDDF81490DDF860A071
:105A1800DDF874B0DDF800C00694013749EA0000EB
:105A28004AEA000A5F450A970CF1480CCDF860A0D5
:105A38007FF4E8ADDDF870C0099C6FEA0C027B1CAE
:105A48009B180CF10101D21903EBC3038A1804EB6C
:105A580083041C9209941C9E199DAE4280F26581B4
:105A68003CAFDDF860800497039602960027029DFC
:105A7800139A149C09980499A542B8BF0022FFF70D
:105A8800A9F8DDF854A0DDF824B0049B45F300061E
:105A9800019605F001090AEB8500ABF104060DF546
:105AA8009C7C00251968019C890001605A6884EA79
:105AB80082024A444FEAE27ACC178AEA020BCAEB1E
:105AC8000B0A84EA010BC4EB0B04083311434AEABE
